{
  "contractName": "CommitmentPhases",
  "abi": [
    {
      "constant": true,
      "inputs": [],
      "name": "deadline",
      "outputs": [
        {
          "name": "",
          "type": "uint256"
        }
      ],
      "payable": false,
      "stateMutability": "view",
      "type": "function"
    },
    {
      "constant": true,
      "inputs": [],
      "name": "finalized",
      "outputs": [
        {
          "name": "",
          "type": "bool"
        }
      ],
      "payable": false,
      "stateMutability": "view",
      "type": "function"
    },
    {
      "inputs": [
        {
          "name": "_deadline",
          "type": "uint256"
        }
      ],
      "payable": false,
      "stateMutability": "nonpayable",
      "type": "constructor"
    },
    {
      "anonymous": false,
      "inputs": [
        {
          "indexed": false,
          "name": "success",
          "type": "bool"
        }
      ],
      "name": "Finalized",
      "type": "event"
    }
  ],
  "bytecode": "0x608060405234801561001057600080fd5b506040516020806101538339810180604052602081101561003057600080fd5b810190808051906020019092919050505042811161004d57600080fd5b806000819055506000600160006101000a81548160ff0219169083151502179055505060d58061007e6000396000f3fe6080604052348015600f57600080fd5b5060043610604f576000357c01000000000000000000000000000000000000000000000000000000009004806329dcb0cf146054578063b3f05b97146070575b600080fd5b605a6090565b6040518082815260200191505060405180910390f35b60766096565b604051808215151515815260200191505060405180910390f35b60005481565b600160009054906101000a900460ff168156fea165627a7a723058204f020de184269ef72e5a8f64cf52b0046f73a28d10bb8c6ea8d09fdb6773f7030029",
  "source": "pragma solidity ^0.5.0;\n\ncontract CommitmentPhases {\n    uint256 public deadline;\n    bool public finalized;\n\n    event Finalized(bool success);\n\n    modifier notFinalized() {\n        require(!finalized, \"Cannot call while finalized\");\n        _;\n    }\n\n    modifier beforeDeadline() {\n        require(now < deadline, \"Cannot call after deadline\");\n        _;\n    }\n\n    modifier finalizedOrAfterDeadline() {\n        require(finalized || now > deadline, \"Must be be finalized or after deadline\");\n        _;\n    }\n\n    function _finalize() internal {\n        finalized = true;\n        emit Finalized(true);\n    }\n\n    constructor(uint256 _deadline) public {\n        require(_deadline > now);\n        deadline = _deadline;\n        finalized = false;\n    }\n}\n",
  "sourcePath": "/Users/developer/Documents/socodapp-edcon-2019/backend/contracts/CommitmentPhases.sol",
  "compiler": {
    "name": "solc",
    "version": "0.5.6+commit.b259423e.Emscripten.clang"
  },
  "schemaVersion": "3.0.6",
  "updatedAt": "2019-04-09T07:17:03.936Z",
  "devdoc": {
    "methods": {}
  },
  "userdoc": {
    "methods": {}
  }
}