{
  "contractName": "Listing",
  "abi": [
    {
      "constant": true,
      "inputs": [
        {
          "name": "",
          "type": "uint256"
        }
      ],
      "name": "commitmentContracts",
      "outputs": [
        {
          "name": "",
          "type": "address"
        }
      ],
      "payable": false,
      "stateMutability": "view",
      "type": "function"
    },
    {
      "anonymous": false,
      "inputs": [
        {
          "indexed": false,
          "name": "contractAddress",
          "type": "address"
        },
        {
          "indexed": false,
          "name": "challenger",
          "type": "address"
        },
        {
          "indexed": false,
          "name": "successBeneficiary",
          "type": "address"
        },
        {
          "indexed": false,
          "name": "failureBeneficiary",
          "type": "address"
        },
        {
          "indexed": false,
          "name": "referee",
          "type": "address"
        },
        {
          "indexed": false,
          "name": "title",
          "type": "string"
        },
        {
          "indexed": false,
          "name": "description",
          "type": "string"
        },
        {
          "indexed": false,
          "name": "deadline",
          "type": "uint256"
        }
      ],
      "name": "SocialCommitmentCreated",
      "type": "event"
    },
    {
      "constant": false,
      "inputs": [
        {
          "name": "_successBeneficiary",
          "type": "address"
        },
        {
          "name": "_failureBeneficiary",
          "type": "address"
        },
        {
          "name": "_referee",
          "type": "address"
        },
        {
          "name": "_title",
          "type": "string"
        },
        {
          "name": "_description",
          "type": "string"
        },
        {
          "name": "_deadline",
          "type": "uint256"
        }
      ],
      "name": "deploy",
      "outputs": [],
      "payable": false,
      "stateMutability": "nonpayable",
      "type": "function"
    },
    {
      "constant": true,
      "inputs": [],
      "name": "numberOfCommitments",
      "outputs": [
        {
          "name": "",
          "type": "uint256"
        }
      ],
      "payable": false,
      "stateMutability": "view",
      "type": "function"
    }
  ],
  "bytecode": "0x608060405234801561001057600080fd5b50611edd806100206000396000f3fe608060405234801561001057600080fd5b506004361061005e576000357c010000000000000000000000000000000000000000000000000000000090048063a1a6514714610063578063e3179f0c146100d1578063f8ec5e4c146100ef575b600080fd5b61008f6004803603602081101561007957600080fd5b8101908080359060200190929190505050610227565b604051808273ffffffffffffffffffffffffffffffffffffffff1673ffffffffffffffffffffffffffffffffffffffff16815260200191505060405180910390f35b6100d9610263565b6040518082815260200191505060405180910390f35b610225600480360360c081101561010557600080fd5b81019080803573ffffffffffffffffffffffffffffffffffffffff169060200190929190803573ffffffffffffffffffffffffffffffffffffffff169060200190929190803573ffffffffffffffffffffffffffffffffffffffff1690602001909291908035906020019064010000000081111561018257600080fd5b82018360208201111561019457600080fd5b803590602001918460018302840111640100000000831117156101b657600080fd5b9091929391929390803590602001906401000000008111156101d757600080fd5b8201836020820111156101e957600080fd5b8035906020019184600183028401116401000000008311171561020b57600080fd5b90919293919293908035906020019092919050505061026f565b005b6000818154811061023457fe5b906000526020600020016000915054906101000a900473ffffffffffffffffffffffffffffffffffffffff1681565b60008080549050905090565b6000338989898989898989604051610286906105f3565b808a73ffffffffffffffffffffffffffffffffffffffff1673ffffffffffffffffffffffffffffffffffffffff1681526020018973ffffffffffffffffffffffffffffffffffffffff1673ffffffffffffffffffffffffffffffffffffffff1681526020018873ffffffffffffffffffffffffffffffffffffffff1673ffffffffffffffffffffffffffffffffffffffff1681526020018773ffffffffffffffffffffffffffffffffffffffff1673ffffffffffffffffffffffffffffffffffffffff16815260200180602001806020018481526020018381038352888882818152602001925080828437600081840152601f19601f8201169050808301925050508381038252868682818152602001925080828437600081840152601f19601f8201169050808301925050509b505050505050505050505050604051809103906000f0801580156103dc573d6000803e3d6000fd5b50905060008190806001815401808255809150509060018203906000526020600020016000909192909190916101000a81548173ffffffffffffffffffffffffffffffffffffffff021916908373ffffffffffffffffffffffffffffffffffffffff160217905550507fed6e7ecb8eb60e2f4c67b8758b7c5ee9fae65d5040b9a115425f2a0901d5d79081338b8b8b8b8b8b8b8b604051808b73ffffffffffffffffffffffffffffffffffffffff1673ffffffffffffffffffffffffffffffffffffffff1681526020018a73ffffffffffffffffffffffffffffffffffffffff1673ffffffffffffffffffffffffffffffffffffffff1681526020018973ffffffffffffffffffffffffffffffffffffffff1673ffffffffffffffffffffffffffffffffffffffff1681526020018873ffffffffffffffffffffffffffffffffffffffff1673ffffffffffffffffffffffffffffffffffffffff1681526020018773ffffffffffffffffffffffffffffffffffffffff1673ffffffffffffffffffffffffffffffffffffffff16815260200180602001806020018481526020018381038352888882818152602001925080828437600081840152601f19601f8201169050808301925050508381038252868682818152602001925080828437600081840152601f19601f8201169050808301925050509c5050505050505050505050505060405180910390a1505050505050505050565b6118b1806106018339019056fe6080604052737d5e6a841ec195f30911074d920eec665a973a2d6001806101000a81548173ffffffffffffffffffffffffffffffffffffffff021916908373ffffffffffffffffffffffffffffffffffffffff1602179055503480156200006557600080fd5b50604051620018b1380380620018b1833981018060405260e08110156200008b57600080fd5b81019080805190602001909291908051906020019092919080519060200190929190805190602001909291908051640100000000811115620000cc57600080fd5b82810190506020810184811115620000e357600080fd5b81518560018202830111640100000000821117156200010157600080fd5b505092919060200180516401000000008111156200011e57600080fd5b828101905060208101848111156200013557600080fd5b81518560018202830111640100000000821117156200015357600080fd5b505092919060200180519060200190929190505050804281116200017657600080fd5b806000819055506000600160006101000a81548160ff02191690831515021790555050600073ffffffffffffffffffffffffffffffffffffffff168773ffffffffffffffffffffffffffffffffffffffff1614156200023d576040517f08c379a00000000000000000000000000000000000000000000000000000000081526004018080602001828103825260198152602001807f4368616c6c656e676572206973206e6f7420646566696e65640000000000000081525060200191505060405180910390fd5b600073ffffffffffffffffffffffffffffffffffffffff168673ffffffffffffffffffffffffffffffffffffffff161415620002e1576040517f08c379a000000000000000000000000000000000000000000000000000000000815260040180806020018281038252601f8152602001807f537563636573732062656e6566696369617279206e6f7420646566696e65640081525060200191505060405180910390fd5b600073ffffffffffffffffffffffffffffffffffffffff168473ffffffffffffffffffffffffffffffffffffffff16141562000385576040517f08c379a00000000000000000000000000000000000000000000000000000000081526004018080602001828103825260138152602001807f52656665726565206e6f7420646566696e65640000000000000000000000000081525060200191505060405180910390fd5b600083511415620003fe576040517f08c379a00000000000000000000000000000000000000000000000000000000081526004018080602001828103825260118152602001807f5469746c65206e6f7420646566696e656400000000000000000000000000000081525060200191505060405180910390fd5b86600260006101000a81548173ffffffffffffffffffffffffffffffffffffffff021916908373ffffffffffffffffffffffffffffffffffffffff16021790555085600360006101000a81548173ffffffffffffffffffffffffffffffffffffffff021916908373ffffffffffffffffffffffffffffffffffffffff16021790555084600460006101000a81548173ffffffffffffffffffffffffffffffffffffffff021916908373ffffffffffffffffffffffffffffffffffffffff16021790555083600560006101000a81548173ffffffffffffffffffffffffffffffffffffffff021916908373ffffffffffffffffffffffffffffffffffffffff16021790555082600690805190602001906200051a92919062000541565b5081600790805190602001906200053392919062000541565b5050505050505050620005f0565b828054600181600116156101000203166002900490600052602060002090601f016020900481019282601f106200058457805160ff1916838001178555620005b5565b82800160010185558215620005b5579182015b82811115620005b457825182559160200191906001019062000597565b5b509050620005c49190620005c8565b5090565b620005ed91905b80821115620005e9576000816000905550600101620005cf565b5090565b90565b6112b180620006006000396000f3fe608060405234801561001057600080fd5b50600436106100d1576000357c010000000000000000000000000000000000000000000000000000000090048063534db0e21161008e578063534db0e21461021f5780637284e4161461026957806382c54f98146102ec57806388ffe86714610336578063b3f05b9714610340578063b6579a9214610362576100d1565b806328c6acf7146100d657806329dcb0cf146101205780633676bd671461013e5780633b1bebd1146101485780633ccfd60b146101925780634a79d50c1461019c575b600080fd5b6100de61036c565b604051808273ffffffffffffffffffffffffffffffffffffffff1673ffffffffffffffffffffffffffffffffffffffff16815260200191505060405180910390f35b610128610392565b6040518082815260200191505060405180910390f35b610146610398565b005b6101506107cc565b604051808273ffffffffffffffffffffffffffffffffffffffff1673ffffffffffffffffffffffffffffffffffffffff16815260200191505060405180910390f35b61019a6107f2565b005b6101a46109ef565b6040518080602001828103825283818151815260200191508051906020019080838360005b838110156101e45780820151818401526020810190506101c9565b50505050905090810190601f1680156102115780820380516001836020036101000a031916815260200191505b509250505060405180910390f35b610227610a8d565b604051808273ffffffffffffffffffffffffffffffffffffffff1673ffffffffffffffffffffffffffffffffffffffff16815260200191505060405180910390f35b610271610ab3565b6040518080602001828103825283818151815260200191508051906020019080838360005b838110156102b1578082015181840152602081019050610296565b50505050905090810190601f1680156102de5780820380516001836020036101000a031916815260200191505b509250505060405180910390f35b6102f4610b51565b604051808273ffffffffffffffffffffffffffffffffffffffff1673ffffffffffffffffffffffffffffffffffffffff16815260200191505060405180910390f35b61033e610b77565b005b610348610e17565b604051808215151515815260200191505060405180910390f35b61036a610e2a565b005b600360009054906101000a900473ffffffffffffffffffffffffffffffffffffffff1681565b60005481565b600560009054906101000a900473ffffffffffffffffffffffffffffffffffffffff1673ffffffffffffffffffffffffffffffffffffffff163373ffffffffffffffffffffffffffffffffffffffff161461045b576040517f08c379a00000000000000000000000000000000000000000000000000000000081526004018080602001828103825260158152602001807f4f6e6c7920726566657265652063616e2063616c6c000000000000000000000081525060200191505060405180910390fd5b60005442106104d2576040517f08c379a000000000000000000000000000000000000000000000000000000000815260040180806020018281038252601a8152602001807f43616e6e6f742063616c6c20616674657220646561646c696e6500000000000081525060200191505060405180910390fd5b600160009054906101000a900460ff1615610555576040517f08c379a000000000000000000000000000000000000000000000000000000000815260040180806020018281038252601b8152602001807f43616e6e6f742063616c6c207768696c652066696e616c697a6564000000000081525060200191505060405180910390fd5b600073ffffffffffffffffffffffffffffffffffffffff16600460009054906101000a900473ffffffffffffffffffffffffffffffffffffffff1673ffffffffffffffffffffffffffffffffffffffff16146107c2576001809054906101000a900473ffffffffffffffffffffffffffffffffffffffff1673ffffffffffffffffffffffffffffffffffffffff1663a9059cbb600460009054906101000a900473ffffffffffffffffffffffffffffffffffffffff166001809054906101000a900473ffffffffffffffffffffffffffffffffffffffff1673ffffffffffffffffffffffffffffffffffffffff166370a08231306040518263ffffffff167c0100000000000000000000000000000000000000000000000000000000028152600401808273ffffffffffffffffffffffffffffffffffffffff1673ffffffffffffffffffffffffffffffffffffffff16815260200191505060206040518083038186803b1580156106c557600080fd5b505afa1580156106d9573d6000803e3d6000fd5b505050506040513d60208110156106ef57600080fd5b81019080805190602001909291905050506040518363ffffffff167c0100000000000000000000000000000000000000000000000000000000028152600401808373ffffffffffffffffffffffffffffffffffffffff1673ffffffffffffffffffffffffffffffffffffffff16815260200182815260200192505050602060405180830381600087803b15801561078557600080fd5b505af1158015610799573d6000803e3d6000fd5b505050506040513d60208110156107af57600080fd5b8101908080519060200190929190505050505b6107ca611207565b565b600560009054906101000a900473ffffffffffffffffffffffffffffffffffffffff1681565b600160009054906101000a900460ff168061080e575060005442115b610863576040517f08c379a00000000000000000000000000000000000000000000000000000000081526004018080602001828103825260268152602001806112606026913960400191505060405180910390fd5b6000600860003373ffffffffffffffffffffffffffffffffffffffff1673ffffffffffffffffffffffffffffffffffffffff1681526020019081526020016000205490506000600860003373ffffffffffffffffffffffffffffffffffffffff1673ffffffffffffffffffffffffffffffffffffffff168152602001908152602001600020819055506001809054906101000a900473ffffffffffffffffffffffffffffffffffffffff1673ffffffffffffffffffffffffffffffffffffffff1663a9059cbb33836040518363ffffffff167c0100000000000000000000000000000000000000000000000000000000028152600401808373ffffffffffffffffffffffffffffffffffffffff1673ffffffffffffffffffffffffffffffffffffffff16815260200182815260200192505050602060405180830381600087803b1580156109b057600080fd5b505af11580156109c4573d6000803e3d6000fd5b505050506040513d60208110156109da57600080fd5b81019080805190602001909291905050505050565b60068054600181600116156101000203166002900480601f016020809104026020016040519081016040528092919081815260200182805460018160011615610100020316600290048015610a855780601f10610a5a57610100808354040283529160200191610a85565b820191906000526020600020905b815481529060010190602001808311610a6857829003601f168201915b505050505081565b600260009054906101000a900473ffffffffffffffffffffffffffffffffffffffff1681565b60078054600181600116156101000203166002900480601f016020809104026020016040519081016040528092919081815260200182805460018160011615610100020316600290048015610b495780601f10610b1e57610100808354040283529160200191610b49565b820191906000526020600020905b815481529060010190602001808311610b2c57829003601f168201915b505050505081565b600460009054906101000a900473ffffffffffffffffffffffffffffffffffffffff1681565b6000544210610bee576040517f08c379a000000000000000000000000000000000000000000000000000000000815260040180806020018281038252601a8152602001807f43616e6e6f742063616c6c20616674657220646561646c696e6500000000000081525060200191505060405180910390fd5b600160009054906101000a900460ff1615610c71576040517f08c379a000000000000000000000000000000000000000000000000000000000815260040180806020018281038252601b8152602001807f43616e6e6f742063616c6c207768696c652066696e616c697a6564000000000081525060200191505060405180910390fd5b60006001809054906101000a900473ffffffffffffffffffffffffffffffffffffffff1673ffffffffffffffffffffffffffffffffffffffff1663dd62ed3e33306040518363ffffffff167c0100000000000000000000000000000000000000000000000000000000028152600401808373ffffffffffffffffffffffffffffffffffffffff1673ffffffffffffffffffffffffffffffffffffffff1681526020018273ffffffffffffffffffffffffffffffffffffffff1673ffffffffffffffffffffffffffffffffffffffff1681526020019250505060206040518083038186803b158015610d6157600080fd5b505afa158015610d75573d6000803e3d6000fd5b505050506040513d6020811015610d8b57600080fd5b8101908080519060200190929190505050905060008111610e14576040517f08c379a000000000000000000000000000000000000000000000000000000000815260040180806020018281038252600b8152602001807f5a65726f20706c6564676500000000000000000000000000000000000000000081525060200191505060405180910390fd5b50565b600160009054906101000a900460ff1681565b600560009054906101000a900473ffffffffffffffffffffffffffffffffffffffff1673ffffffffffffffffffffffffffffffffffffffff163373ffffffffffffffffffffffffffffffffffffffff1614610eed576040517f08c379a00000000000000000000000000000000000000000000000000000000081526004018080602001828103825260158152602001807f4f6e6c7920726566657265652063616e2063616c6c000000000000000000000081525060200191505060405180910390fd5b6000544210610f64576040517f08c379a000000000000000000000000000000000000000000000000000000000815260040180806020018281038252601a8152602001807f43616e6e6f742063616c6c20616674657220646561646c696e6500000000000081525060200191505060405180910390fd5b600160009054906101000a900460ff1615610fe7576040517f08c379a000000000000000000000000000000000000000000000000000000000815260040180806020018281038252601b8152602001807f43616e6e6f742063616c6c207768696c652066696e616c697a6564000000000081525060200191505060405180910390fd5b6001809054906101000a900473ffffffffffffffffffffffffffffffffffffffff1673ffffffffffffffffffffffffffffffffffffffff1663a9059cbb600360009054906101000a900473ffffffffffffffffffffffffffffffffffffffff166001809054906101000a900473ffffffffffffffffffffffffffffffffffffffff1673ffffffffffffffffffffffffffffffffffffffff166370a08231306040518263ffffffff167c0100000000000000000000000000000000000000000000000000000000028152600401808273ffffffffffffffffffffffffffffffffffffffff1673ffffffffffffffffffffffffffffffffffffffff16815260200191505060206040518083038186803b15801561110157600080fd5b505afa158015611115573d6000803e3d6000fd5b505050506040513d602081101561112b57600080fd5b81019080805190602001909291905050506040518363ffffffff167c0100000000000000000000000000000000000000000000000000000000028152600401808373ffffffffffffffffffffffffffffffffffffffff1673ffffffffffffffffffffffffffffffffffffffff16815260200182815260200192505050602060405180830381600087803b1580156111c157600080fd5b505af11580156111d5573d6000803e3d6000fd5b505050506040513d60208110156111eb57600080fd5b810190808051906020019092919050505050611205611207565b565b60018060006101000a81548160ff0219169083151502179055507f41493253ae80c9f89e25283c36f67849365d0515134ce43de1314223cb6f73426001604051808215151515815260200191505060405180910390a156fe4d7573742062652062652066696e616c697a6564206f7220616674657220646561646c696e65a165627a7a723058208ade2ba8620be041fc38466e03186e768bd7dbfc1447e8f30d53108ef44f015d0029a165627a7a72305820925047404638b9926078b68840fc4b4c5b8e1b7b54346f50eb8fdbc32325474a0029",
  "source": "pragma solidity ^0.5.0;\n\nimport \"./SocialCommitment.sol\";\n\ncontract Listing {\n\n    address[] public commitmentContracts;\n\n    event SocialCommitmentCreated(\n        address contractAddress,\n        address challenger,\n        address successBeneficiary,\n        address failureBeneficiary,\n        address referee,\n        string title,\n        string description,\n        uint256 deadline\n    );\n\n    function deploy(\n        address payable _successBeneficiary,\n        address payable _failureBeneficiary,\n        address _referee,\n        string calldata _title,\n        string calldata _description,\n        uint256 _deadline\n    ) external {\n        address addr = address(new SocialCommitment(\n                msg.sender, // challenger\n                _successBeneficiary,\n                _failureBeneficiary,\n                _referee,\n                _title,\n                _description,\n                _deadline\n            ));\n        commitmentContracts.push(addr);\n        emit SocialCommitmentCreated(\n            addr,\n            msg.sender,\n            _successBeneficiary,\n            _failureBeneficiary,\n            _referee,\n            _title,\n            _description,\n            _deadline\n        );\n    }\n\n    function numberOfCommitments() public view returns (uint256) {\n        return commitmentContracts.length;\n    }\n}",
  "sourcePath": "/Users/developer/Documents/socodapp-edcon-2019/backend/contracts/Listing.sol",
  "compiler": {
    "name": "solc",
    "version": "0.5.6+commit.b259423e.Emscripten.clang"
  },
  "schemaVersion": "3.0.6",
  "updatedAt": "2019-04-09T07:44:48.033Z",
  "devdoc": {
    "methods": {}
  },
  "userdoc": {
    "methods": {}
  }
}