{
  "contractName": "SocialCommitment",
  "abi": [
    {
      "constant": true,
      "inputs": [
        {
          "name": "",
          "type": "address"
        }
      ],
      "name": "balances",
      "outputs": [
        {
          "name": "",
          "type": "uint256"
        }
      ],
      "payable": false,
      "stateMutability": "view",
      "type": "function"
    },
    {
      "constant": true,
      "inputs": [],
      "name": "successBeneficiary",
      "outputs": [
        {
          "name": "",
          "type": "address"
        }
      ],
      "payable": false,
      "stateMutability": "view",
      "type": "function"
    },
    {
      "constant": true,
      "inputs": [],
      "name": "deadline",
      "outputs": [
        {
          "name": "",
          "type": "uint256"
        }
      ],
      "payable": false,
      "stateMutability": "view",
      "type": "function"
    },
    {
      "constant": true,
      "inputs": [],
      "name": "referee",
      "outputs": [
        {
          "name": "",
          "type": "address"
        }
      ],
      "payable": false,
      "stateMutability": "view",
      "type": "function"
    },
    {
      "constant": true,
      "inputs": [],
      "name": "title",
      "outputs": [
        {
          "name": "",
          "type": "string"
        }
      ],
      "payable": false,
      "stateMutability": "view",
      "type": "function"
    },
    {
      "constant": true,
      "inputs": [],
      "name": "challenger",
      "outputs": [
        {
          "name": "",
          "type": "address"
        }
      ],
      "payable": false,
      "stateMutability": "view",
      "type": "function"
    },
    {
      "constant": true,
      "inputs": [],
      "name": "description",
      "outputs": [
        {
          "name": "",
          "type": "string"
        }
      ],
      "payable": false,
      "stateMutability": "view",
      "type": "function"
    },
    {
      "constant": true,
      "inputs": [],
      "name": "failureBeneficiary",
      "outputs": [
        {
          "name": "",
          "type": "address"
        }
      ],
      "payable": false,
      "stateMutability": "view",
      "type": "function"
    },
    {
      "constant": true,
      "inputs": [],
      "name": "succeeded",
      "outputs": [
        {
          "name": "",
          "type": "bool"
        }
      ],
      "payable": false,
      "stateMutability": "view",
      "type": "function"
    },
    {
      "constant": true,
      "inputs": [],
      "name": "finalized",
      "outputs": [
        {
          "name": "",
          "type": "bool"
        }
      ],
      "payable": false,
      "stateMutability": "view",
      "type": "function"
    },
    {
      "inputs": [
        {
          "name": "_challenger",
          "type": "address"
        },
        {
          "name": "_successBeneficiary",
          "type": "address"
        },
        {
          "name": "_failureBeneficiary",
          "type": "address"
        },
        {
          "name": "_referee",
          "type": "address"
        },
        {
          "name": "_title",
          "type": "string"
        },
        {
          "name": "_description",
          "type": "string"
        },
        {
          "name": "_deadline",
          "type": "uint256"
        }
      ],
      "payable": false,
      "stateMutability": "nonpayable",
      "type": "constructor"
    },
    {
      "anonymous": false,
      "inputs": [
        {
          "indexed": true,
          "name": "backer",
          "type": "address"
        },
        {
          "indexed": false,
          "name": "amount",
          "type": "uint256"
        }
      ],
      "name": "PledgeReceived",
      "type": "event"
    },
    {
      "anonymous": false,
      "inputs": [
        {
          "indexed": false,
          "name": "success",
          "type": "bool"
        }
      ],
      "name": "Finalized",
      "type": "event"
    },
    {
      "constant": false,
      "inputs": [],
      "name": "pledge",
      "outputs": [],
      "payable": false,
      "stateMutability": "nonpayable",
      "type": "function"
    },
    {
      "constant": false,
      "inputs": [],
      "name": "finalizeSucceed",
      "outputs": [],
      "payable": false,
      "stateMutability": "nonpayable",
      "type": "function"
    },
    {
      "constant": false,
      "inputs": [],
      "name": "finalizeFail",
      "outputs": [],
      "payable": false,
      "stateMutability": "nonpayable",
      "type": "function"
    },
    {
      "constant": false,
      "inputs": [],
      "name": "withdraw",
      "outputs": [],
      "payable": false,
      "stateMutability": "nonpayable",
      "type": "function"
    }
  ],
  "bytecode": "0x608060405273ad6d458402f60fd3bd25163575031acdce07538d6001806101000a81548173ffffffffffffffffffffffffffffffffffffffff021916908373ffffffffffffffffffffffffffffffffffffffff1602179055503480156200006557600080fd5b5060405162001c4e38038062001c4e833981018060405260e08110156200008b57600080fd5b81019080805190602001909291908051906020019092919080519060200190929190805190602001909291908051640100000000811115620000cc57600080fd5b82810190506020810184811115620000e357600080fd5b81518560018202830111640100000000821117156200010157600080fd5b505092919060200180516401000000008111156200011e57600080fd5b828101905060208101848111156200013557600080fd5b81518560018202830111640100000000821117156200015357600080fd5b505092919060200180519060200190929190505050804281116200017657600080fd5b806000819055506000600160006101000a81548160ff02191690831515021790555050600073ffffffffffffffffffffffffffffffffffffffff168773ffffffffffffffffffffffffffffffffffffffff1614156200023d576040517f08c379a00000000000000000000000000000000000000000000000000000000081526004018080602001828103825260198152602001807f4368616c6c656e676572206973206e6f7420646566696e65640000000000000081525060200191505060405180910390fd5b600073ffffffffffffffffffffffffffffffffffffffff168673ffffffffffffffffffffffffffffffffffffffff161415620002e1576040517f08c379a000000000000000000000000000000000000000000000000000000000815260040180806020018281038252601f8152602001807f537563636573732062656e6566696369617279206e6f7420646566696e65640081525060200191505060405180910390fd5b600073ffffffffffffffffffffffffffffffffffffffff168473ffffffffffffffffffffffffffffffffffffffff16141562000385576040517f08c379a00000000000000000000000000000000000000000000000000000000081526004018080602001828103825260138152602001807f52656665726565206e6f7420646566696e65640000000000000000000000000081525060200191505060405180910390fd5b600083511415620003fe576040517f08c379a00000000000000000000000000000000000000000000000000000000081526004018080602001828103825260118152602001807f5469746c65206e6f7420646566696e656400000000000000000000000000000081525060200191505060405180910390fd5b86600260006101000a81548173ffffffffffffffffffffffffffffffffffffffff021916908373ffffffffffffffffffffffffffffffffffffffff16021790555085600360006101000a81548173ffffffffffffffffffffffffffffffffffffffff021916908373ffffffffffffffffffffffffffffffffffffffff16021790555084600460006101000a81548173ffffffffffffffffffffffffffffffffffffffff021916908373ffffffffffffffffffffffffffffffffffffffff16021790555083600560006101000a81548173ffffffffffffffffffffffffffffffffffffffff021916908373ffffffffffffffffffffffffffffffffffffffff16021790555082600690805190602001906200051a92919062000541565b5081600790805190602001906200053392919062000541565b5050505050505050620005f0565b828054600181600116156101000203166002900490600052602060002090601f016020900481019282601f106200058457805160ff1916838001178555620005b5565b82800160010185558215620005b5579182015b82811115620005b457825182559160200191906001019062000597565b5b509050620005c49190620005c8565b5090565b620005ed91905b80821115620005e9576000816000905550600101620005cf565b5090565b90565b61164e80620006006000396000f3fe608060405234801561001057600080fd5b5060043610610107576000357c0100000000000000000000000000000000000000000000000000000000900480637284e416116100a957806388ffe8671161008357806388ffe867146103c457806393415250146103ce578063b3f05b97146103f0578063d354aa271461041257610107565b80637284e416146102ed57806382c54f981461037057806388ff410f146103ba57610107565b80633b1bebd1116100e55780633b1bebd1146101cc5780633ccfd60b146102165780634a79d50c14610220578063534db0e2146102a357610107565b806327e235e31461010c57806328c6acf71461016457806329dcb0cf146101ae575b600080fd5b61014e6004803603602081101561012257600080fd5b81019080803573ffffffffffffffffffffffffffffffffffffffff16906020019092919050505061041c565b6040518082815260200191505060405180910390f35b61016c610434565b604051808273ffffffffffffffffffffffffffffffffffffffff1673ffffffffffffffffffffffffffffffffffffffff16815260200191505060405180910390f35b6101b661045a565b6040518082815260200191505060405180910390f35b6101d4610460565b604051808273ffffffffffffffffffffffffffffffffffffffff1673ffffffffffffffffffffffffffffffffffffffff16815260200191505060405180910390f35b61021e610486565b005b610228610683565b6040518080602001828103825283818151815260200191508051906020019080838360005b8381101561026857808201518184015260208101905061024d565b50505050905090810190601f1680156102955780820380516001836020036101000a031916815260200191505b509250505060405180910390f35b6102ab610721565b604051808273ffffffffffffffffffffffffffffffffffffffff1673ffffffffffffffffffffffffffffffffffffffff16815260200191505060405180910390f35b6102f5610747565b6040518080602001828103825283818151815260200191508051906020019080838360005b8381101561033557808201518184015260208101905061031a565b50505050905090810190601f1680156103625780820380516001836020036101000a031916815260200191505b509250505060405180910390f35b6103786107e5565b604051808273ffffffffffffffffffffffffffffffffffffffff1673ffffffffffffffffffffffffffffffffffffffff16815260200191505060405180910390f35b6103c261080b565b005b6103cc610c03565b005b6103d661112b565b604051808215151515815260200191505060405180910390f35b6103f861113e565b604051808215151515815260200191505060405180910390f35b61041a611151565b005b60096020528060005260406000206000915090505481565b600360009054906101000a900473ffffffffffffffffffffffffffffffffffffffff1681565b60005481565b600560009054906101000a900473ffffffffffffffffffffffffffffffffffffffff1681565b600160009054906101000a900460ff16806104a2575060005442115b6104f7576040517f08c379a00000000000000000000000000000000000000000000000000000000081526004018080602001828103825260268152602001806115fd6026913960400191505060405180910390fd5b6000600960003373ffffffffffffffffffffffffffffffffffffffff1673ffffffffffffffffffffffffffffffffffffffff1681526020019081526020016000205490506000600960003373ffffffffffffffffffffffffffffffffffffffff1673ffffffffffffffffffffffffffffffffffffffff168152602001908152602001600020819055506001809054906101000a900473ffffffffffffffffffffffffffffffffffffffff1673ffffffffffffffffffffffffffffffffffffffff1663a9059cbb33836040518363ffffffff167c0100000000000000000000000000000000000000000000000000000000028152600401808373ffffffffffffffffffffffffffffffffffffffff1673ffffffffffffffffffffffffffffffffffffffff16815260200182815260200192505050602060405180830381600087803b15801561064457600080fd5b505af1158015610658573d6000803e3d6000fd5b505050506040513d602081101561066e57600080fd5b81019080805190602001909291905050505050565b60068054600181600116156101000203166002900480601f0160208091040260200160405190810160405280929190818152602001828054600181600116156101000203166002900480156107195780601f106106ee57610100808354040283529160200191610719565b820191906000526020600020905b8154815290600101906020018083116106fc57829003601f168201915b505050505081565b600260009054906101000a900473ffffffffffffffffffffffffffffffffffffffff1681565b60078054600181600116156101000203166002900480601f0160208091040260200160405190810160405280929190818152602001828054600181600116156101000203166002900480156107dd5780601f106107b2576101008083540402835291602001916107dd565b820191906000526020600020905b8154815290600101906020018083116107c057829003601f168201915b505050505081565b600460009054906101000a900473ffffffffffffffffffffffffffffffffffffffff1681565b600560009054906101000a900473ffffffffffffffffffffffffffffffffffffffff1673ffffffffffffffffffffffffffffffffffffffff163373ffffffffffffffffffffffffffffffffffffffff16146108ce576040517f08c379a00000000000000000000000000000000000000000000000000000000081526004018080602001828103825260158152602001807f4f6e6c7920726566657265652063616e2063616c6c000000000000000000000081525060200191505060405180910390fd5b6000544210610945576040517f08c379a000000000000000000000000000000000000000000000000000000000815260040180806020018281038252601a8152602001807f43616e6e6f742063616c6c20616674657220646561646c696e6500000000000081525060200191505060405180910390fd5b600160009054906101000a900460ff16156109c8576040517f08c379a000000000000000000000000000000000000000000000000000000000815260040180806020018281038252601b8152602001807f43616e6e6f742063616c6c207768696c652066696e616c697a6564000000000081525060200191505060405180910390fd5b6001809054906101000a900473ffffffffffffffffffffffffffffffffffffffff1673ffffffffffffffffffffffffffffffffffffffff1663a9059cbb600360009054906101000a900473ffffffffffffffffffffffffffffffffffffffff166001809054906101000a900473ffffffffffffffffffffffffffffffffffffffff1673ffffffffffffffffffffffffffffffffffffffff166370a08231306040518263ffffffff167c0100000000000000000000000000000000000000000000000000000000028152600401808273ffffffffffffffffffffffffffffffffffffffff1673ffffffffffffffffffffffffffffffffffffffff16815260200191505060206040518083038186803b158015610ae257600080fd5b505afa158015610af6573d6000803e3d6000fd5b505050506040513d6020811015610b0c57600080fd5b81019080805190602001909291905050506040518363ffffffff167c0100000000000000000000000000000000000000000000000000000000028152600401808373ffffffffffffffffffffffffffffffffffffffff1673ffffffffffffffffffffffffffffffffffffffff16815260200182815260200192505050602060405180830381600087803b158015610ba257600080fd5b505af1158015610bb6573d6000803e3d6000fd5b505050506040513d6020811015610bcc57600080fd5b8101908080519060200190929190505050506001600860006101000a81548160ff021916908315150217905550610c01611585565b565b6000544210610c7a576040517f08c379a000000000000000000000000000000000000000000000000000000000815260040180806020018281038252601a8152602001807f43616e6e6f742063616c6c20616674657220646561646c696e6500000000000081525060200191505060405180910390fd5b600160009054906101000a900460ff1615610cfd576040517f08c379a000000000000000000000000000000000000000000000000000000000815260040180806020018281038252601b8152602001807f43616e6e6f742063616c6c207768696c652066696e616c697a6564000000000081525060200191505060405180910390fd5b60006001809054906101000a900473ffffffffffffffffffffffffffffffffffffffff1673ffffffffffffffffffffffffffffffffffffffff1663dd62ed3e33306040518363ffffffff167c0100000000000000000000000000000000000000000000000000000000028152600401808373ffffffffffffffffffffffffffffffffffffffff1673ffffffffffffffffffffffffffffffffffffffff1681526020018273ffffffffffffffffffffffffffffffffffffffff1673ffffffffffffffffffffffffffffffffffffffff1681526020019250505060206040518083038186803b158015610ded57600080fd5b505afa158015610e01573d6000803e3d6000fd5b505050506040513d6020811015610e1757600080fd5b8101908080519060200190929190505050905060008111610ea0576040517f08c379a000000000000000000000000000000000000000000000000000000000815260040180806020018281038252600b8152602001807f5a65726f20706c6564676500000000000000000000000000000000000000000081525060200191505060405180910390fd5b610ef281600960003373ffffffffffffffffffffffffffffffffffffffff1673ffffffffffffffffffffffffffffffffffffffff168152602001908152602001600020546115dd90919063ffffffff16565b600960003373ffffffffffffffffffffffffffffffffffffffff1673ffffffffffffffffffffffffffffffffffffffff168152602001908152602001600020819055506001809054906101000a900473ffffffffffffffffffffffffffffffffffffffff1673ffffffffffffffffffffffffffffffffffffffff166323b872dd3330846040518463ffffffff167c0100000000000000000000000000000000000000000000000000000000028152600401808473ffffffffffffffffffffffffffffffffffffffff1673ffffffffffffffffffffffffffffffffffffffff1681526020018373ffffffffffffffffffffffffffffffffffffffff1673ffffffffffffffffffffffffffffffffffffffff1681526020018281526020019350505050602060405180830381600087803b15801561102d57600080fd5b505af1158015611041573d6000803e3d6000fd5b505050506040513d602081101561105757600080fd5b81019080805190602001909291905050506110da576040517f08c379a00000000000000000000000000000000000000000000000000000000081526004018080602001828103825260138152602001807f446169207472616e73666572206661696c65640000000000000000000000000081525060200191505060405180910390fd5b3373ffffffffffffffffffffffffffffffffffffffff167f8be1cd6b5b94a46676d2312706e389412016b3153fe3e45bea208b77d34caaef826040518082815260200191505060405180910390a250565b600860009054906101000a900460ff1681565b600160009054906101000a900460ff1681565b600560009054906101000a900473ffffffffffffffffffffffffffffffffffffffff1673ffffffffffffffffffffffffffffffffffffffff163373ffffffffffffffffffffffffffffffffffffffff1614611214576040517f08c379a00000000000000000000000000000000000000000000000000000000081526004018080602001828103825260158152602001807f4f6e6c7920726566657265652063616e2063616c6c000000000000000000000081525060200191505060405180910390fd5b600054421061128b576040517f08c379a000000000000000000000000000000000000000000000000000000000815260040180806020018281038252601a8152602001807f43616e6e6f742063616c6c20616674657220646561646c696e6500000000000081525060200191505060405180910390fd5b600160009054906101000a900460ff161561130e576040517f08c379a000000000000000000000000000000000000000000000000000000000815260040180806020018281038252601b8152602001807f43616e6e6f742063616c6c207768696c652066696e616c697a6564000000000081525060200191505060405180910390fd5b600073ffffffffffffffffffffffffffffffffffffffff16600460009054906101000a900473ffffffffffffffffffffffffffffffffffffffff1673ffffffffffffffffffffffffffffffffffffffff161461157b576001809054906101000a900473ffffffffffffffffffffffffffffffffffffffff1673ffffffffffffffffffffffffffffffffffffffff1663a9059cbb600460009054906101000a900473ffffffffffffffffffffffffffffffffffffffff166001809054906101000a900473ffffffffffffffffffffffffffffffffffffffff1673ffffffffffffffffffffffffffffffffffffffff166370a08231306040518263ffffffff167c0100000000000000000000000000000000000000000000000000000000028152600401808273ffffffffffffffffffffffffffffffffffffffff1673ffffffffffffffffffffffffffffffffffffffff16815260200191505060206040518083038186803b15801561147e57600080fd5b505afa158015611492573d6000803e3d6000fd5b505050506040513d60208110156114a857600080fd5b81019080805190602001909291905050506040518363ffffffff167c0100000000000000000000000000000000000000000000000000000000028152600401808373ffffffffffffffffffffffffffffffffffffffff1673ffffffffffffffffffffffffffffffffffffffff16815260200182815260200192505050602060405180830381600087803b15801561153e57600080fd5b505af1158015611552573d6000803e3d6000fd5b505050506040513d602081101561156857600080fd5b8101908080519060200190929190505050505b611583611585565b565b60018060006101000a81548160ff0219169083151502179055507f41493253ae80c9f89e25283c36f67849365d0515134ce43de1314223cb6f73426001604051808215151515815260200191505060405180910390a1565b6000808284019050838110156115f257600080fd5b809150509291505056fe4d7573742062652062652066696e616c697a6564206f7220616674657220646561646c696e65a165627a7a72305820d21caec9189febcd30c15931bffe96472807c93addc89b85529e92cf7372a2990029",
  "source": "pragma solidity ^0.5.0;\n\nimport \"openzeppelin-solidity/contracts/math/SafeMath.sol\";\nimport \"openzeppelin-solidity/contracts/token/ERC20/IERC20.sol\";\nimport \"./CommitmentPhases.sol\";\n\ncontract SocialCommitment is CommitmentPhases {\n    // MAIN\n    // IERC20 dai = IERC20(0x89d24A6b4CcB1B6fAA2625fE562bDD9a23260359);\n\n    // ROPSTEN\n    IERC20 dai = IERC20(0xaD6D458402F60fD3Bd25163575031ACDce07538D);\n\n\n    using SafeMath for uint256;\n\n    address public challenger;\n    address payable public successBeneficiary;\n    address payable public failureBeneficiary;\n    address public referee;\n    string public title;\n    string public description;\n    bool public succeeded;\n    mapping(address => uint256) public balances;\n\n    event PledgeReceived(address indexed backer, uint256 amount);\n\n    modifier onlyReferee() {\n        require(msg.sender == referee, \"Only referee can call\");\n        _;\n    }\n\n    /**\n    * Initialise the SocialCommitment parameters\n    */\n    constructor (\n        address _challenger,\n        address payable _successBeneficiary,\n        address payable _failureBeneficiary,\n        address _referee,\n        string memory _title,\n        string memory _description,\n        uint256 _deadline\n    ) CommitmentPhases(_deadline) public {\n        require(_challenger != address(0), \"Challenger is not defined\");\n        require(_successBeneficiary != address(0), \"Success beneficiary not defined\");\n        require(_referee != address(0), \"Referee not defined\");\n        require(bytes(_title).length != 0, \"Title not defined\");\n\n        challenger = _challenger;\n        successBeneficiary = _successBeneficiary;\n        failureBeneficiary = _failureBeneficiary;\n        referee = _referee;\n        title = _title;\n        description = _description;\n    }\n\n    function pledge() public beforeDeadline notFinalized {\n        uint256 amount = dai.allowance(msg.sender, address(this));\n        require(amount > 0, \"Zero pledge\");\n        balances[msg.sender] = balances[msg.sender].add(amount);\n        require(dai.transferFrom(msg.sender, address(this), amount), \"Dai transfer failed\");\n        emit PledgeReceived(msg.sender, amount);\n    }\n\n    function finalizeSucceed() public onlyReferee beforeDeadline notFinalized {\n        dai.transfer(successBeneficiary, dai.balanceOf(address(this)));\n        succeeded = true;\n        _finalize();\n    }\n\n    function finalizeFail() public onlyReferee beforeDeadline notFinalized {\n        if (failureBeneficiary != address(0)) {\n            dai.transfer(failureBeneficiary, dai.balanceOf(address(this)));\n        }\n        _finalize();\n    }\n\n    function withdraw() public finalizedOrAfterDeadline {\n        uint256 amount = balances[msg.sender];\n        balances[msg.sender] = 0;\n        dai.transfer(msg.sender, amount);\n    }\n}\n",
  "sourcePath": "/Users/developer/Documents/socodapp-edcon-2019/backend/contracts/SocialCommitment.sol",
  "compiler": {
    "name": "solc",
    "version": "0.5.6+commit.b259423e.Emscripten.clang"
  },
  "schemaVersion": "3.0.6",
  "updatedAt": "2019-04-09T20:20:04.819Z",
  "devdoc": {
    "methods": {}
  },
  "userdoc": {
    "methods": {
      "constructor": "Initialise the SocialCommitment parameters"
    }
  }
}