{
  "contractName": "SocialCommitment",
  "abi": [
    {
      "constant": true,
      "inputs": [],
      "name": "successBeneficiary",
      "outputs": [
        {
          "name": "",
          "type": "address"
        }
      ],
      "payable": false,
      "stateMutability": "view",
      "type": "function",
      "signature": "0x28c6acf7"
    },
    {
      "constant": true,
      "inputs": [],
      "name": "deadline",
      "outputs": [
        {
          "name": "",
          "type": "uint256"
        }
      ],
      "payable": false,
      "stateMutability": "view",
      "type": "function",
      "signature": "0x29dcb0cf"
    },
    {
      "constant": true,
      "inputs": [],
      "name": "referee",
      "outputs": [
        {
          "name": "",
          "type": "address"
        }
      ],
      "payable": false,
      "stateMutability": "view",
      "type": "function",
      "signature": "0x3b1bebd1"
    },
    {
      "constant": true,
      "inputs": [],
      "name": "title",
      "outputs": [
        {
          "name": "",
          "type": "string"
        }
      ],
      "payable": false,
      "stateMutability": "view",
      "type": "function",
      "signature": "0x4a79d50c"
    },
    {
      "constant": true,
      "inputs": [],
      "name": "challenger",
      "outputs": [
        {
          "name": "",
          "type": "address"
        }
      ],
      "payable": false,
      "stateMutability": "view",
      "type": "function",
      "signature": "0x534db0e2"
    },
    {
      "constant": true,
      "inputs": [],
      "name": "description",
      "outputs": [
        {
          "name": "",
          "type": "string"
        }
      ],
      "payable": false,
      "stateMutability": "view",
      "type": "function",
      "signature": "0x7284e416"
    },
    {
      "constant": true,
      "inputs": [],
      "name": "failureBeneficiary",
      "outputs": [
        {
          "name": "",
          "type": "address"
        }
      ],
      "payable": false,
      "stateMutability": "view",
      "type": "function",
      "signature": "0x82c54f98"
    },
    {
      "constant": true,
      "inputs": [],
      "name": "succeeded",
      "outputs": [
        {
          "name": "",
          "type": "bool"
        }
      ],
      "payable": false,
      "stateMutability": "view",
      "type": "function",
      "signature": "0x93415250"
    },
    {
      "constant": true,
      "inputs": [],
      "name": "finalized",
      "outputs": [
        {
          "name": "",
          "type": "bool"
        }
      ],
      "payable": false,
      "stateMutability": "view",
      "type": "function",
      "signature": "0xb3f05b97"
    },
    {
      "inputs": [
        {
          "name": "_challenger",
          "type": "address"
        },
        {
          "name": "_successBeneficiary",
          "type": "address"
        },
        {
          "name": "_failureBeneficiary",
          "type": "address"
        },
        {
          "name": "_referee",
          "type": "address"
        },
        {
          "name": "_title",
          "type": "string"
        },
        {
          "name": "_description",
          "type": "string"
        },
        {
          "name": "_deadline",
          "type": "uint256"
        }
      ],
      "payable": false,
      "stateMutability": "nonpayable",
      "type": "constructor"
    },
    {
      "anonymous": false,
      "inputs": [
        {
          "indexed": true,
          "name": "backer",
          "type": "address"
        },
        {
          "indexed": false,
          "name": "amount",
          "type": "uint256"
        }
      ],
      "name": "PledgeReceived",
      "type": "event",
      "signature": "0x8be1cd6b5b94a46676d2312706e389412016b3153fe3e45bea208b77d34caaef"
    },
    {
      "anonymous": false,
      "inputs": [
        {
          "indexed": false,
          "name": "success",
          "type": "bool"
        }
      ],
      "name": "Finalized",
      "type": "event",
      "signature": "0x41493253ae80c9f89e25283c36f67849365d0515134ce43de1314223cb6f7342"
    },
    {
      "constant": false,
      "inputs": [],
      "name": "pledge",
      "outputs": [],
      "payable": false,
      "stateMutability": "nonpayable",
      "type": "function",
      "signature": "0x88ffe867"
    },
    {
      "constant": false,
      "inputs": [],
      "name": "finalizeSucceed",
      "outputs": [],
      "payable": false,
      "stateMutability": "nonpayable",
      "type": "function",
      "signature": "0x88ff410f"
    },
    {
      "constant": false,
      "inputs": [],
      "name": "finalizeFail",
      "outputs": [],
      "payable": false,
      "stateMutability": "nonpayable",
      "type": "function",
      "signature": "0xd354aa27"
    },
    {
      "constant": false,
      "inputs": [],
      "name": "withdraw",
      "outputs": [],
      "payable": false,
      "stateMutability": "nonpayable",
      "type": "function",
      "signature": "0x3ccfd60b"
    }
  ],
  "bytecode": "0x608060405273ad6d458402f60fd3bd25163575031acdce07538d6001806101000a81548173ffffffffffffffffffffffffffffffffffffffff021916908373ffffffffffffffffffffffffffffffffffffffff1602179055503480156200006557600080fd5b5060405162001bc338038062001bc3833981018060405260e08110156200008b57600080fd5b81019080805190602001909291908051906020019092919080519060200190929190805190602001909291908051640100000000811115620000cc57600080fd5b82810190506020810184811115620000e357600080fd5b81518560018202830111640100000000821117156200010157600080fd5b505092919060200180516401000000008111156200011e57600080fd5b828101905060208101848111156200013557600080fd5b81518560018202830111640100000000821117156200015357600080fd5b505092919060200180519060200190929190505050804281116200017657600080fd5b806000819055506000600160006101000a81548160ff02191690831515021790555050600073ffffffffffffffffffffffffffffffffffffffff168773ffffffffffffffffffffffffffffffffffffffff1614156200023d576040517f08c379a00000000000000000000000000000000000000000000000000000000081526004018080602001828103825260198152602001807f4368616c6c656e676572206973206e6f7420646566696e65640000000000000081525060200191505060405180910390fd5b600073ffffffffffffffffffffffffffffffffffffffff168673ffffffffffffffffffffffffffffffffffffffff161415620002e1576040517f08c379a000000000000000000000000000000000000000000000000000000000815260040180806020018281038252601f8152602001807f537563636573732062656e6566696369617279206e6f7420646566696e65640081525060200191505060405180910390fd5b600073ffffffffffffffffffffffffffffffffffffffff168473ffffffffffffffffffffffffffffffffffffffff16141562000385576040517f08c379a00000000000000000000000000000000000000000000000000000000081526004018080602001828103825260138152602001807f52656665726565206e6f7420646566696e65640000000000000000000000000081525060200191505060405180910390fd5b600083511415620003fe576040517f08c379a00000000000000000000000000000000000000000000000000000000081526004018080602001828103825260118152602001807f5469746c65206e6f7420646566696e656400000000000000000000000000000081525060200191505060405180910390fd5b86600260006101000a81548173ffffffffffffffffffffffffffffffffffffffff021916908373ffffffffffffffffffffffffffffffffffffffff16021790555085600360006101000a81548173ffffffffffffffffffffffffffffffffffffffff021916908373ffffffffffffffffffffffffffffffffffffffff16021790555084600460006101000a81548173ffffffffffffffffffffffffffffffffffffffff021916908373ffffffffffffffffffffffffffffffffffffffff16021790555083600560006101000a81548173ffffffffffffffffffffffffffffffffffffffff021916908373ffffffffffffffffffffffffffffffffffffffff16021790555082600690805190602001906200051a92919062000541565b5081600790805190602001906200053392919062000541565b5050505050505050620005f0565b828054600181600116156101000203166002900490600052602060002090601f016020900481019282601f106200058457805160ff1916838001178555620005b5565b82800160010185558215620005b5579182015b82811115620005b457825182559160200191906001019062000597565b5b509050620005c49190620005c8565b5090565b620005ed91905b80821115620005e9576000816000905550600101620005cf565b5090565b90565b6115c380620006006000396000f3fe608060405234801561001057600080fd5b50600436106100ec576000357c0100000000000000000000000000000000000000000000000000000000900480637284e416116100a957806388ffe8671161008357806388ffe86714610351578063934152501461035b578063b3f05b971461037d578063d354aa271461039f576100ec565b80637284e4161461027a57806382c54f98146102fd57806388ff410f14610347576100ec565b806328c6acf7146100f157806329dcb0cf1461013b5780633b1bebd1146101595780633ccfd60b146101a35780634a79d50c146101ad578063534db0e214610230575b600080fd5b6100f96103a9565b604051808273ffffffffffffffffffffffffffffffffffffffff1673ffffffffffffffffffffffffffffffffffffffff16815260200191505060405180910390f35b6101436103cf565b6040518082815260200191505060405180910390f35b6101616103d5565b604051808273ffffffffffffffffffffffffffffffffffffffff1673ffffffffffffffffffffffffffffffffffffffff16815260200191505060405180910390f35b6101ab6103fb565b005b6101b56105f8565b6040518080602001828103825283818151815260200191508051906020019080838360005b838110156101f55780820151818401526020810190506101da565b50505050905090810190601f1680156102225780820380516001836020036101000a031916815260200191505b509250505060405180910390f35b610238610696565b604051808273ffffffffffffffffffffffffffffffffffffffff1673ffffffffffffffffffffffffffffffffffffffff16815260200191505060405180910390f35b6102826106bc565b6040518080602001828103825283818151815260200191508051906020019080838360005b838110156102c25780820151818401526020810190506102a7565b50505050905090810190601f1680156102ef5780820380516001836020036101000a031916815260200191505b509250505060405180910390f35b61030561075a565b604051808273ffffffffffffffffffffffffffffffffffffffff1673ffffffffffffffffffffffffffffffffffffffff16815260200191505060405180910390f35b61034f610780565b005b610359610b78565b005b6103636110a0565b604051808215151515815260200191505060405180910390f35b6103856110b3565b604051808215151515815260200191505060405180910390f35b6103a76110c6565b005b600360009054906101000a900473ffffffffffffffffffffffffffffffffffffffff1681565b60005481565b600560009054906101000a900473ffffffffffffffffffffffffffffffffffffffff1681565b600160009054906101000a900460ff1680610417575060005442115b61046c576040517f08c379a00000000000000000000000000000000000000000000000000000000081526004018080602001828103825260268152602001806115726026913960400191505060405180910390fd5b6000600960003373ffffffffffffffffffffffffffffffffffffffff1673ffffffffffffffffffffffffffffffffffffffff1681526020019081526020016000205490506000600960003373ffffffffffffffffffffffffffffffffffffffff1673ffffffffffffffffffffffffffffffffffffffff168152602001908152602001600020819055506001809054906101000a900473ffffffffffffffffffffffffffffffffffffffff1673ffffffffffffffffffffffffffffffffffffffff1663a9059cbb33836040518363ffffffff167c0100000000000000000000000000000000000000000000000000000000028152600401808373ffffffffffffffffffffffffffffffffffffffff1673ffffffffffffffffffffffffffffffffffffffff16815260200182815260200192505050602060405180830381600087803b1580156105b957600080fd5b505af11580156105cd573d6000803e3d6000fd5b505050506040513d60208110156105e357600080fd5b81019080805190602001909291905050505050565b60068054600181600116156101000203166002900480601f01602080910402602001604051908101604052809291908181526020018280546001816001161561010002031660029004801561068e5780601f106106635761010080835404028352916020019161068e565b820191906000526020600020905b81548152906001019060200180831161067157829003601f168201915b505050505081565b600260009054906101000a900473ffffffffffffffffffffffffffffffffffffffff1681565b60078054600181600116156101000203166002900480601f0160208091040260200160405190810160405280929190818152602001828054600181600116156101000203166002900480156107525780601f1061072757610100808354040283529160200191610752565b820191906000526020600020905b81548152906001019060200180831161073557829003601f168201915b505050505081565b600460009054906101000a900473ffffffffffffffffffffffffffffffffffffffff1681565b600560009054906101000a900473ffffffffffffffffffffffffffffffffffffffff1673ffffffffffffffffffffffffffffffffffffffff163373ffffffffffffffffffffffffffffffffffffffff1614610843576040517f08c379a00000000000000000000000000000000000000000000000000000000081526004018080602001828103825260158152602001807f4f6e6c7920726566657265652063616e2063616c6c000000000000000000000081525060200191505060405180910390fd5b60005442106108ba576040517f08c379a000000000000000000000000000000000000000000000000000000000815260040180806020018281038252601a8152602001807f43616e6e6f742063616c6c20616674657220646561646c696e6500000000000081525060200191505060405180910390fd5b600160009054906101000a900460ff161561093d576040517f08c379a000000000000000000000000000000000000000000000000000000000815260040180806020018281038252601b8152602001807f43616e6e6f742063616c6c207768696c652066696e616c697a6564000000000081525060200191505060405180910390fd5b6001809054906101000a900473ffffffffffffffffffffffffffffffffffffffff1673ffffffffffffffffffffffffffffffffffffffff1663a9059cbb600360009054906101000a900473ffffffffffffffffffffffffffffffffffffffff166001809054906101000a900473ffffffffffffffffffffffffffffffffffffffff1673ffffffffffffffffffffffffffffffffffffffff166370a08231306040518263ffffffff167c0100000000000000000000000000000000000000000000000000000000028152600401808273ffffffffffffffffffffffffffffffffffffffff1673ffffffffffffffffffffffffffffffffffffffff16815260200191505060206040518083038186803b158015610a5757600080fd5b505afa158015610a6b573d6000803e3d6000fd5b505050506040513d6020811015610a8157600080fd5b81019080805190602001909291905050506040518363ffffffff167c0100000000000000000000000000000000000000000000000000000000028152600401808373ffffffffffffffffffffffffffffffffffffffff1673ffffffffffffffffffffffffffffffffffffffff16815260200182815260200192505050602060405180830381600087803b158015610b1757600080fd5b505af1158015610b2b573d6000803e3d6000fd5b505050506040513d6020811015610b4157600080fd5b8101908080519060200190929190505050506001600860006101000a81548160ff021916908315150217905550610b766114fa565b565b6000544210610bef576040517f08c379a000000000000000000000000000000000000000000000000000000000815260040180806020018281038252601a8152602001807f43616e6e6f742063616c6c20616674657220646561646c696e6500000000000081525060200191505060405180910390fd5b600160009054906101000a900460ff1615610c72576040517f08c379a000000000000000000000000000000000000000000000000000000000815260040180806020018281038252601b8152602001807f43616e6e6f742063616c6c207768696c652066696e616c697a6564000000000081525060200191505060405180910390fd5b60006001809054906101000a900473ffffffffffffffffffffffffffffffffffffffff1673ffffffffffffffffffffffffffffffffffffffff1663dd62ed3e33306040518363ffffffff167c0100000000000000000000000000000000000000000000000000000000028152600401808373ffffffffffffffffffffffffffffffffffffffff1673ffffffffffffffffffffffffffffffffffffffff1681526020018273ffffffffffffffffffffffffffffffffffffffff1673ffffffffffffffffffffffffffffffffffffffff1681526020019250505060206040518083038186803b158015610d6257600080fd5b505afa158015610d76573d6000803e3d6000fd5b505050506040513d6020811015610d8c57600080fd5b8101908080519060200190929190505050905060008111610e15576040517f08c379a000000000000000000000000000000000000000000000000000000000815260040180806020018281038252600b8152602001807f5a65726f20706c6564676500000000000000000000000000000000000000000081525060200191505060405180910390fd5b610e6781600960003373ffffffffffffffffffffffffffffffffffffffff1673ffffffffffffffffffffffffffffffffffffffff1681526020019081526020016000205461155290919063ffffffff16565b600960003373ffffffffffffffffffffffffffffffffffffffff1673ffffffffffffffffffffffffffffffffffffffff168152602001908152602001600020819055506001809054906101000a900473ffffffffffffffffffffffffffffffffffffffff1673ffffffffffffffffffffffffffffffffffffffff166323b872dd3330846040518463ffffffff167c0100000000000000000000000000000000000000000000000000000000028152600401808473ffffffffffffffffffffffffffffffffffffffff1673ffffffffffffffffffffffffffffffffffffffff1681526020018373ffffffffffffffffffffffffffffffffffffffff1673ffffffffffffffffffffffffffffffffffffffff1681526020018281526020019350505050602060405180830381600087803b158015610fa257600080fd5b505af1158015610fb6573d6000803e3d6000fd5b505050506040513d6020811015610fcc57600080fd5b810190808051906020019092919050505061104f576040517f08c379a00000000000000000000000000000000000000000000000000000000081526004018080602001828103825260138152602001807f446169207472616e73666572206661696c65640000000000000000000000000081525060200191505060405180910390fd5b3373ffffffffffffffffffffffffffffffffffffffff167f8be1cd6b5b94a46676d2312706e389412016b3153fe3e45bea208b77d34caaef826040518082815260200191505060405180910390a250565b600860009054906101000a900460ff1681565b600160009054906101000a900460ff1681565b600560009054906101000a900473ffffffffffffffffffffffffffffffffffffffff1673ffffffffffffffffffffffffffffffffffffffff163373ffffffffffffffffffffffffffffffffffffffff1614611189576040517f08c379a00000000000000000000000000000000000000000000000000000000081526004018080602001828103825260158152602001807f4f6e6c7920726566657265652063616e2063616c6c000000000000000000000081525060200191505060405180910390fd5b6000544210611200576040517f08c379a000000000000000000000000000000000000000000000000000000000815260040180806020018281038252601a8152602001807f43616e6e6f742063616c6c20616674657220646561646c696e6500000000000081525060200191505060405180910390fd5b600160009054906101000a900460ff1615611283576040517f08c379a000000000000000000000000000000000000000000000000000000000815260040180806020018281038252601b8152602001807f43616e6e6f742063616c6c207768696c652066696e616c697a6564000000000081525060200191505060405180910390fd5b600073ffffffffffffffffffffffffffffffffffffffff16600460009054906101000a900473ffffffffffffffffffffffffffffffffffffffff1673ffffffffffffffffffffffffffffffffffffffff16146114f0576001809054906101000a900473ffffffffffffffffffffffffffffffffffffffff1673ffffffffffffffffffffffffffffffffffffffff1663a9059cbb600460009054906101000a900473ffffffffffffffffffffffffffffffffffffffff166001809054906101000a900473ffffffffffffffffffffffffffffffffffffffff1673ffffffffffffffffffffffffffffffffffffffff166370a08231306040518263ffffffff167c0100000000000000000000000000000000000000000000000000000000028152600401808273ffffffffffffffffffffffffffffffffffffffff1673ffffffffffffffffffffffffffffffffffffffff16815260200191505060206040518083038186803b1580156113f357600080fd5b505afa158015611407573d6000803e3d6000fd5b505050506040513d602081101561141d57600080fd5b81019080805190602001909291905050506040518363ffffffff167c0100000000000000000000000000000000000000000000000000000000028152600401808373ffffffffffffffffffffffffffffffffffffffff1673ffffffffffffffffffffffffffffffffffffffff16815260200182815260200192505050602060405180830381600087803b1580156114b357600080fd5b505af11580156114c7573d6000803e3d6000fd5b505050506040513d60208110156114dd57600080fd5b8101908080519060200190929190505050505b6114f86114fa565b565b60018060006101000a81548160ff0219169083151502179055507f41493253ae80c9f89e25283c36f67849365d0515134ce43de1314223cb6f73426001604051808215151515815260200191505060405180910390a1565b60008082840190508381101561156757600080fd5b809150509291505056fe4d7573742062652062652066696e616c697a6564206f7220616674657220646561646c696e65a165627a7a723058200422472b8a1c856e5e99e4e1fdac6fdd954772cb5deec30bfa271444e6e66cb10029",
  "source": "pragma solidity ^0.5.0;\n\nimport \"openzeppelin-solidity/contracts/math/SafeMath.sol\";\nimport \"openzeppelin-solidity/contracts/token/ERC20/IERC20.sol\";\nimport \"./CommitmentPhases.sol\";\n\ncontract SocialCommitment is CommitmentPhases {\n    // MAIN\n    // IERC20 dai = IERC20(0x89d24A6b4CcB1B6fAA2625fE562bDD9a23260359);\n\n    // ROPSTEN\n    IERC20 dai = IERC20(0xaD6D458402F60fD3Bd25163575031ACDce07538D);\n\n\n    using SafeMath for uint256;\n\n    address public challenger;\n    address payable public successBeneficiary;\n    address payable public failureBeneficiary;\n    address public referee;\n    string public title;\n    string public description;\n    bool public succeeded;\n    mapping(address => uint256) balances;\n\n    event PledgeReceived(address indexed backer, uint256 amount);\n\n    modifier onlyReferee() {\n        require(msg.sender == referee, \"Only referee can call\");\n        _;\n    }\n\n    /**\n    * Initialise the SocialCommitment parameters\n    */\n    constructor (\n        address _challenger,\n        address payable _successBeneficiary,\n        address payable _failureBeneficiary,\n        address _referee,\n        string memory _title,\n        string memory _description,\n        uint256 _deadline\n    ) CommitmentPhases(_deadline) public {\n        require(_challenger != address(0), \"Challenger is not defined\");\n        require(_successBeneficiary != address(0), \"Success beneficiary not defined\");\n        require(_referee != address(0), \"Referee not defined\");\n        require(bytes(_title).length != 0, \"Title not defined\");\n\n        challenger = _challenger;\n        successBeneficiary = _successBeneficiary;\n        failureBeneficiary = _failureBeneficiary;\n        referee = _referee;\n        title = _title;\n        description = _description;\n    }\n\n    function pledge() public beforeDeadline notFinalized {\n        uint256 amount = dai.allowance(msg.sender, address(this));\n        require(amount > 0, \"Zero pledge\");\n        balances[msg.sender] = balances[msg.sender].add(amount);\n        require(dai.transferFrom(msg.sender, address(this), amount), \"Dai transfer failed\");\n        emit PledgeReceived(msg.sender, amount);\n    }\n\n    function finalizeSucceed() public onlyReferee beforeDeadline notFinalized {\n        dai.transfer(successBeneficiary, dai.balanceOf(address(this)));\n        succeeded = true;\n        _finalize();\n    }\n\n    function finalizeFail() public onlyReferee beforeDeadline notFinalized {\n        if (failureBeneficiary != address(0)) {\n            dai.transfer(failureBeneficiary, dai.balanceOf(address(this)));\n        }\n        _finalize();\n    }\n\n    function withdraw() public finalizedOrAfterDeadline {\n        uint256 amount = balances[msg.sender];\n        balances[msg.sender] = 0;\n        dai.transfer(msg.sender, amount);\n    }\n}\n",
  "sourcePath": "/Users/developer/Documents/socodapp-edcon-2019/backend/contracts/SocialCommitment.sol",
  "compiler": {
    "name": "solc",
    "version": "0.5.6+commit.b259423e.Emscripten.clang"
  },
  "schemaVersion": "3.0.6",
  "updatedAt": "2019-04-09T13:39:53.663Z",
  "devdoc": {
    "methods": {}
  },
  "userdoc": {
    "methods": {
      "constructor": "Initialise the SocialCommitment parameters"
    }
  }
}